:0400000007EF00F016
:0A0008007D820BED08F026EF0AF0F0
:10100000003738392F3435362A3132332D40303DD0
:051010002B2569000022
:101016000600FACF7BF0FBCF7CF0F2A815EF08F0C4
:1010260017EF08F020EF08F0F2A21CEF08F01EEF11
:1010360008F020EF08F0FCEC0AF0F0A625EF08F027
:1010460027EF08F030EF08F0F0A02CEF08F02EEFB5
:1010560008F030EF08F0FAEC0AF0F0A835EF08F0E7
:1010660037EF08F040EF08F0F0A23CEF08F03EEF53
:1010760008F040EF08F0F8EC0AF0F2A645EF08F0A9
:1010860047EF08F062EF08F0F2A04CEF08F04EEFE1
:1010960008F062EF08F081A853EF08F055EF08F06A
:1010A60062EF08F07904D8A45BEF08F05DEF08F072
:1010B60062EF08F0000E796E000ECCEC0AF0F2A694
:1010C60067EF08F069EF08F084EF08F0F2A06EEF22
:1010D60008F070EF08F084EF08F081BA75EF08F0B9
:1010E60077EF08F084EF08F07950D8A47DEF08F088
:1010F6007FEF08F084EF08F0010E796E010ECCEC5C
:101106000AF0F2A689EF08F08BEF08F0A6EF08F0D8
:10111600F2A090EF08F092EF08F0A6EF08F081AA8F
:1011260097EF08F099EF08F0A6EF08F07804D8A436
:101136009FEF08F0A1EF08F0A6EF08F0000E786E1A
:10114600000EBFEC0AF0F2A6ABEF08F0ADEF08F028
:10115600C8EF08F0F2A0B2EF08F0B4EF08F0C8EF5D
:1011660008F081BAB9EF08F0BBEF08F0C8EF08F055
:101176007850D8A4C1EF08F0C3EF08F0C8EF08F024
:10118600010E786E010EBFEC0AF0F2A6CDEF08F064
:10119600CFEF08F0EAEF08F0F2A0D4EF08F0D6EFB0
:1011A60008F0EAEF08F081ACDBEF08F0DDEF08F0BD
:1011B600EAEF08F07704D8A4E3EF08F0E5EF08F0CB
:1011C600EAEF08F0000E776E000EB2EC0AF0F2A617
:1011D600EFEF08F0F1EF08F00CEF09F0F2A0F6EFF0
:1011E60008F0F8EF08F00CEF09F081BCFDEF08F00D
:1011F600FFEF08F00CEF09F07750D8A405EF09F0DF
:1012060007EF09F00CEF09F0010E776E010EB2EC54
:101216000AF0F2A611EF09F013EF09F02EEF09F02C
:10122600F2A018EF09F01AEF09F02EEF09F081AEDF
:101236001FEF09F021EF09F02EEF09F07604D8A48C
:1012460027EF09F029EF09F02EEF09F0000E766E70
:10125600000EA5EC0AF0F2A633EF09F035EF09F01F
:1012660050EF09F0F2A03AEF09F03CEF09F050EF29
:1012760009F081BE41EF09F043EF09F050EF09F0A4
:101286007650D8A449EF09F04BEF09F050EF09F07A
:10129600010E766E010EA5EC0AF09DAC55EF09F035
:1012A60057EF09F060EF09F09EAC5CEF09F05EEFD6
:1012B60009F060EF09F005EC0BF0F2AA65EF09F012
:1012C60067EF09F070EF09F0F2A46CEF09F06EEF2A
:1012D60009F070EF09F0E5EC0AF09DA075EF09F052
:1012E60077EF09F080EF09F09EA07CEF09F07EEF22
:1012F60009F080EF09F0EBEC0AF09DA285EF09F00A
:1013060087EF09F090EF09F09EA28CEF09F08EEFBF
:1013160009F090EF09F004EC0BF0A0A295EF09F0AC
:1013260097EF09F0A0EF09F0A1A29CEF09F09EEF5C
:1013360009F0A0EF09F0DFEC0AF09DA4A5EF09F093
:10134600A7EF09F0B0EF09F09EA4ACEF09F0AEEFFD
:1013560009F0B0EF09F000EC0BF0A0A0B5EF09F032
:10136600B7EF09F0C0EF09F0A1A0BCEF09F0BEEF9E
:1013760009F0C0EF09F078EC0AF09DA4C5EF09F07A
:10138600C7EF09F0D0EF09F09EA4CCEF09F0CEEF3D
:1013960009F0D0EF09F0FEEC0AF09DA8D5EF09F0B0
:1013A600D7EF09F0E0EF09F09EA8DCEF09F0DEEFD9
:1013B60009F0E0EF09F0F0EC0AF09DAAE5EF09F07C
:1013C600E7EF09F0F0EF09F09EAAECEF09F0EEEF77
:1013D60009F0F0EF09F003EC0BF09DA6F5EF09F02C
:1013E600F7EF09F000EF0AF09EA6FCEF09F0FEEF1A
:1013F60009F000EF0AF0F2EC0AF09DA605EF0AF0FC
:1014060007EF0AF010EF0AF09EA60CEF0AF00EEFB7
:101416000AF010EF0AF0F4EC0AF0A0A615EF0AF0B5
:1014260017EF0AF020EF0AF0A1A61CEF0AF01EEF54
:101436000AF020EF0AF0F6EC0AF07CC0FBFF7BC056
:10144600FAFF7D921100AE0EF66E140EF76E000EC8
:10145600F86E00EE80F010EE42F00900F5CFEEFFD8
:10146600E550E150FAE11E0EF66E150EF76E000E0F
:10147600F86E00EE4EF010EE2CF00900F5CFEEFF00
:10148600E550E150FAE100EEC2F00B0EEE6AE80616
:10149600FDE100EE01F04D0EEE6AE806FDE17D90FD
:1014A6007D920001D9EF0AF001020C0A0032000118
:1014B600100000000000020C1200320001100000B3
:1014C600000001020C0A00320001100000000000BA
:1014D600020C12003200011000000000030B131B67
:1014E600636B737B020A121A222AA190435044109E
:1014F600D8B480EF0AF082EF0AF08EEF0AF002D835
:101506008EEF0AF00500FA6E4350FD6E4450FE6EF3
:10151600FF6AFA5012001200800F810F820F830FAC
:10152600840F890F8A0F8B0F8C0F8D0F920F930FDD
:10153600940F950F960F000002685A622A1A622AC3
:10154600010101017A6EF2907A50D8A4ADEF0AF04B
:10155600AFEF0AF0B1EF0AF0B1EF0AF012007A6EBF
:10156600F2907A50D8A4BAEF0AF0BCEF0AF0BEEFB8
:101576000AF0BEEF0AF012007A6EF2907A50D8A402
:10158600C7EF0AF0C9EF0AF0CBEF0AF0CBEF0AF08B
:1015960012007A6EF2907A50D8A4D4EF0AF0D6EF01
:1015A6000AF0D8EF0AF0D8EF0AF0120002EC0BF0BE
:1015B600DBEF0AF007EF00F0A1921650B36E15C0EC
:1015C600B2FF1200F2942050D76E1FC0D6FF120051
:1015D6001C50CF6E1BC0CEFF12009D9812009E9627
:1015E60012009E961200A1961200F0921200F09040
:1015F6001200F29212009E9412009E9412001200A3
:06160600120012001200A8
:020000040020DA
:08000000FFFFFFFFFFFFFFFF00
:020000040030CA
:0E000000FF02091EFF8181FF0FC00FE00F40BD
:00000001FF
