:0400000007EF00F016
:0A0008007E826BED0AF0E5EF10F0C8
:10100000003738392F3435362A3132332D40303DD0
:051010002B2569000022
:101016002C50800B356E2C502C24376E2BAE16EFD1
:1010260008F018EF08F019EF08F037803750D8B4F9
:101036001FEF08F021EF08F036EF08F03728D8A4A4
:1010460027EF08F029EF08F031EF08F0000E296EBF
:10105600000E2A6E000E2B6E000E2C6E2B8E000ECE
:101066002C6E3EEF08F0000E296E000E2A6E000E62
:101076002B6E000E2C6E3050800B366E35503618A7
:10108600D8B448EF08F04AEF08F04BEF08F0358C7B
:1010960030503024366E2FAE53EF08F055EF08F07F
:1010A60056EF08F036803650D8B45CEF08F05EEFA5
:1010B60008F073EF08F03628D8A464EF08F066EF5E
:1010C60008F06EEF08F0000E2D6E000E2E6E000E6C
:1010D6002F6E000E306E2F8E000E306E7BEF08F0F6
:1010E600000E2D6E000E2E6E000E2F6E000E306E50
:1010F6003750365CD8B082EF08F084EF08F0ABEFDB
:1011060008F035AC89EF08F08BEF08F08DEF08F0AA
:10111600800E351A37C038F036C037F038C036F092
:1011260029C038F02DC029F038C02DF02AC038F07B
:101136002EC02AF038C02EF02BC038F02FC02BF06E
:1011460038C02FF02CC038F030C02CF038C030F04A
:10115600000E386E375036C031F0326A315E000EFE
:10116600325A32BEC0EF08F0325009E11A0E315C35
:10117600D8A0C0EF08F0C2EF08F0F9EF08F0295048
:101186002A102B102C10D8A4CBEF08F0CEEF08F0C5
:10119600010ECFEF08F0000E386E000E296E000E1D
:1011A6002A6E000E2B6E000E2C6E36C037F002EF44
:1011B60009F038A0E1EF08F0E3EF08F0E9EF08F0F6
:1011C600D89038300109386EEBEF08F0D8903832F5
:1011D60029A0F0EF08F0F2EF08F0F3EF08F0388EF0
:1011E6002C342C322B322A322932372A3650375CAD
:1011F600D8A000EF09F002EF09F0DCEF08F035BCEB
:1012060007EF09F009EF09F049EF09F03750D8A4C4
:101216000FEF09F011EF09F01BEF09F0000E296E30
:10122600000E2A6E000E2B6E000E2C6E6AEF0AF070
:101236002D5029262E502A222F502B2230502C2278
:101246002CA028EF09F02AEF09F0D6EF09F038A014
:101256002FEF09F031EF09F037EF09F0D890383069
:101266000109386E39EF09F0D890383229A03EEFDF
:1012760009F040EF09F041EF09F0388E2C342C329A
:101286002B322A322932372AD6EF09F02D50295C23
:101296002E502A582F502B582C50800A316E305021
:1012A600800A3158D8B05AEF09F05CEF09F087EFA1
:1012B60009F029502D5C316E2A502E58326E2B5073
:1012C6002F58336E2C503058346EFF0E3124296E51
:1012D600FF0E32202A6EFF0E33202B6EFF0E3420B7
:1012E6002C6E800E351A386C3850D8A47DEF09F074
:1012F6007FEF09F08FEF09F0010E2926000E2A2252
:101306002B222C228FEF09F02D50295E2E502A5ABF
:101316002F502B5A30502C5A29502A102B102C1093
:10132600D8A498EF09F09AEF09F0CFEF09F03850FA
:10133600D8A4A0EF09F0A2EF09F0CFEF09F0000E54
:10134600296E000E2A6E000E2B6E000E2C6E6AEFB2
:101356000AF0D89029362A362B362C3638AEB6EF18
:1013660009F0B8EF09F0B9EF09F0298038A0BEEF0F
:1013760009F0C0EF09F0C4EF09F0D8803836C6EF9F
:1013860009F0D89038363750D8B4CCEF09F0CEEF04
:1013960009F0CFEF09F037062BAED4EF09F0D6EF00
:1013A60009F0ACEF09F0000E366E38AEDDEF09F04D
:1013B600DFEF09F0F7EF09F038C031F07F0E311694
:1013C600D8B4E8EF09F0EAEF09F0EEEF09F0010E04
:1013D600366EF7EF09F029A0F3EF09F0F5EF09F003
:1013E600F7EF09F0EAEF09F03650D8B4FDEF09F04F
:1013F600FFEF09F02AEF0AF0010E2926000E2A2235
:101406002B222C222CA00AEF0AF00CEF0AF02AEF6E
:101416000AF029C031F02AC032F02BC033F02CC0BC
:1014260034F03434343233323232313231C029F08E
:1014360032C02AF033C02BF034C02CF03728D8B491
:1014460027EF0AF029EF0AF02AEF0AF0372A3728A1
:10145600D8B430EF0AF032EF0AF03AEF0AF037501C
:10146600D8A438EF0AF03AEF0AF04CEF0AF0000E73
:10147600296E000E2A6E000E2B6E000E2C6E375053
:10148600D8A448EF0AF04AEF0AF04CEF0AF0000E33
:10149600356E37A051EF0AF053EF0AF056EF0AF017
:1014A6002B8E57EF0AF02B9ED89037302C6E35AE28
:1014B6005FEF0AF061EF0AF062EF0AF02C8E29C0A6
:1014C60029F02AC02AF02BC02BF02CC02CF01200D9
:1014D6000600F2A871EF0AF073EF0AF07CEF0AF04B
:1014E600F2A278EF0AF07AEF0AF07CEF0AF040EC0D
:1014F60012F0F0A681EF0AF083EF0AF08CEF0AF003
:10150600F0A088EF0AF08AEF0AF08CEF0AF03EECC2
:1015160012F0F0A891EF0AF093EF0AF09CEF0AF0B0
:10152600F0A298EF0AF09AEF0AF09CEF0AF03CEC72
:1015360012F0F2A6A1EF0AF0A3EF0AF0BEEF0AF04E
:10154600F2A0A8EF0AF0AAEF0AF0BEEF0AF081A80F
:10155600AFEF0AF0B1EF0AF0BEEF0AF07D04D8A4AF
:10156600B7EF0AF0B9EF0AF0BEEF0AF0000E7D6E93
:10157600000E0AEC12F0F2A6C3EF0AF0C5EF0AF06D
:10158600E0EF0AF0F2A0CAEF0AF0CCEF0AF0E0EFC3
:101596000AF081BAD1EF0AF0D3EF0AF0E0EF0AF0D1
:1015A6007D50D8A4D9EF0AF0DBEF0AF0E0EF0AF09D
:1015B600010E7D6E010E0AEC12F0F2A6E5EF0AF0BE
:1015C600E7EF0AF002EF0BF0F2A0ECEF0AF0EEEF15
:1015D6000AF002EF0BF081AAF3EF0AF0F5EF0AF03A
:1015E60002EF0BF07C04D8A4FBEF0AF0FDEF0AF043
:1015F60002EF0BF0000E7C6E000EFDEC11F0F2A671
:1016060007EF0BF009EF0BF024EF0BF0F2A00EEF53
:101616000BF010EF0BF024EF0BF081BA15EF0BF087
:1016260017EF0BF024EF0BF07C50D8A41DEF0BF056
:101636001FEF0BF024EF0BF0010E7C6E010EFDEC9C
:1016460011F0F2A629EF0BF02BEF0BF046EF0BF0A3
:10165600F2A030EF0BF032EF0BF046EF0BF081AC5F
:1016660037EF0BF039EF0BF046EF0BF07B04D8A405
:101676003FEF0BF041EF0BF046EF0BF0000E7B6EE9
:10168600000EF0EC11F0F2A64BEF0BF04DEF0BF065
:1016960068EF0BF0F2A052EF0BF054EF0BF068EF8F
:1016A6000BF081BC59EF0BF05BEF0BF068EF0BF022
:1016B6007B50D8A461EF0BF063EF0BF068EF0BF0F3
:1016C600010E7B6E010EF0EC11F0F2A66DEF0BF041
:1016D6006FEF0BF08AEF0BF0F2A074EF0BF076EFE2
:1016E6000BF08AEF0BF081AE7BEF0BF07DEF0BF08A
:1016F6008AEF0BF07A04D8A483EF0BF085EF0BF09A
:101706008AEF0BF0000E7A6E000EE3EC11F0F2A6F3
:101716008FEF0BF091EF0BF0ACEF0BF0F2A096EF22
:101726000BF098EF0BF0ACEF0BF081BE9DEF0BF0DA
:101736009FEF0BF0ACEF0BF07A50D8A4A5EF0BF0AF
:10174600A7EF0BF0ACEF0BF0010E7A6E010EE3EC97
:1017560011F09DACB1EF0BF0B3EF0BF0BCEF0BF05B
:101766009EACB8EF0BF0BAEF0BF0BCEF0BF04AEC07
:1017760012F0F2AAC1EF0BF0C3EF0BF0CCEF0BF0B7
:10178600F2A4C8EF0BF0CAEF0BF0CCEF0BF028EC8D
:1017960012F09DA0D1EF0BF0D3EF0BF0DCEF0BF0C6
:1017A6009EA0D8EF0BF0DAEF0BF0DCEF0BF023EC9A
:1017B60012F09DA2E1EF0BF0E3EF0BF0ECEF0BF074
:1017C6009EA2E8EF0BF0EAEF0BF0ECEF0BF02DEC3E
:1017D60012F0A0A2F1EF0BF0F3EF0BF0FCEF0BF021
:1017E600A1A2F8EF0BF0FAEF0BF0FCEF0BF017EC01
:1017F60012F09DA401EF0CF003EF0CF00CEF0CF0CF
:101806009EA408EF0CF00AEF0CF00CEF0CF046EC7F
:1018160012F0A0A011EF0CF013EF0CF01CEF0CF07F
:10182600A1A018EF0CF01AEF0CF01CEF0CF044EC32
:1018360012F09DA421EF0CF023EF0CF02CEF0CF02E
:101846009EA428EF0CF02AEF0CF02CEF0CF042ECE3
:1018560012F09DA831EF0CF033EF0CF03CEF0CF0DA
:101866009EA838EF0CF03AEF0CF03CEF0CF034EC9D
:1018760012F09DAA41EF0CF043EF0CF04CEF0CF088
:101886009EAA48EF0CF04AEF0CF04CEF0CF049EC36
:1018960012F09DA651EF0CF053EF0CF05CEF0CF03C
:1018A6009EA658EF0CF05AEF0CF05CEF0CF036ECFD
:1018B60012F09DA661EF0CF063EF0CF06CEF0CF0EC
:1018C6009EA668EF0CF06AEF0CF06CEF0CF038ECAB
:1018D60012F0A0A671EF0CF073EF0CF07CEF0CF099
:1018E600A1A678EF0CF07AEF0CF07CEF0CF03AEC56
:1018F60012F07E9211001350800B206E13501324A9
:10190600276E12AE89EF0CF08BEF0CF08CEF0CF01B
:1019160027802750D8B492EF0CF094EF0CF0A9EF83
:101926000CF02728D8A49AEF0CF09CEF0CF0A4EF4B
:101936000CF0000E106E000E116E000E126E000EF0
:10194600136E128E000E136EB1EF0CF0000E106EB9
:10195600000E116E000E126E000E136E1750800BE5
:10196600201A17501724286E16AEBCEF0CF0BEEFE7
:101976000CF0BFEF0CF028802850D8B4C5EF0CF05F
:10198600C7EF0CF0DCEF0CF02828D8A4CDEF0CF054
:10199600CFEF0CF0D7EF0CF0000E146E000E156EA4
:1019A600000E166E000E176E168E000E176EE4EF02
:1019B6000CF0000E146E000E156E000E166E000E64
:1019C600176E1450151016101710D8A4EDEF0CF062
:1019D600EFEF0CF007EF0DF0000E106E000E116E1B
:1019E600000E126E000E136E800E12127F0E131270
:1019F6002050131210C010F011C011F012C012F0D6
:101A060013C013F04AEF0EF02750D8A40DEF0DF0D7
:101A16000FEF0DF019EF0DF0000E106E000E116EA7
:101A2600000E126E000E136E4AEF0EF0285027C0FD
:101A360018F0196A185E000E195A7F0E1824216EC6
:101A4600000E1920226E10C01CF011C01DF012C02D
:101A56001EF013C01FF0000E106E000E116E000E69
:101A6600126E000E136E000E236E000E246E000E14
:101A7600256E000E266E000E286E7AEF0DF02850A9
:101A8600D8B448EF0DF04AEF0DF061EF0DF0D890A5
:101A96001C361D361E361F36D890103611361236B5
:101AA600133626AE59EF0DF05BEF0DF05CEF0DF03F
:101AB6001080D890233624362536263614501C5CE2
:101AC60015501D5816501E5817501F58D8A06EEFA7
:101AD6000DF070EF0DF079EF0DF0268C14501C5EB2
:101AE60015501D5A16501E5A17501F5A282A190EDD
:101AF600286480EF0DF082EF0DF042EF0DF01C50E0
:101B06001D101E101F10D8B48BEF0DF08DEF0DF0C9
:101B1600A5EF0DF02380A5EF0DF0D8901036113605
:101B26001236133626AE9AEF0DF09CEF0DF09DEFB0
:101B36000DF01080D8902336243625362636210619
:101B4600D8A0220612AEAAEF0DF0ACEF0DF090EF82
:101B56000DF0000E286E26AEB3EF0DF0B5EF0DF0CA
:101B6600D9EF0DF0FF0E2314186EFF0E2414196E14
:101B7600FF0E25141A6E7F0E26141B6E18501910B0
:101B86001A101B10D8B4CAEF0DF0CCEF0DF0D0EF41
:101B96000DF0010E286ED9EF0DF010A0D5EF0DF067
:101BA600D7EF0DF0D9EF0DF0CCEF0DF02850D8B4EB
:101BB600DFEF0DF0E1EF0DF005EF0EF0010E102650
:101BC600000E11221222132213A0ECEF0DF0EEEFFD
:101BD6000DF005EF0EF010C018F011C019F012C08C
:101BE6001AF013C01BF01B341B321A32193218328A
:101BF60018C010F019C011F01AC012F01BC013F073
:101C0600214A222A22BE10EF0EF0225008E1212896
:101C1600D8A010EF0EF012EF0EF01DEF0EF0000E32
:101C2600226E2168000E106E000E116E000E126EEE
:101C3600000E136E22BE2AEF0EF0225006E121049A
:101C4600D8B028EF0EF02AEF0EF038EF0EF0000EA7
:101C5600226E000E216E000E106E000E116E000E2A
:101C6600126E000E136E000E206E21C027F027A004
:101C76003FEF0EF041EF0EF044EF0EF0128E45EFFF
:101C86000EF0129ED8902730136EFBEF0CF0120068
:101C96000A6E0A50D8B452EF0EF054EF0EF076EFFB
:101CA6000EF005BE5BEF0EF059EF0EF076EF0EF07C
:101CB60002C006F003C007F004C008F005C009F032
:101CC600061E071E081E091E062A000E07220822E7
:101CD600092206C00CF007C00DF008C00EF009C0BE
:101CE6000FF07EEF0EF002C00CF003C00DF004C042
:101CF6000EF005C00FF00250031004100510D8A412
:101D060087EF0EF089EF0EF093EF0EF0000E026EE5
:101D1600000E036E000E046E000E056E24EF0FF02B
:101D2600960E0B6E9DEF0EF00B2AD8900F320E32E8
:101D36000D320C32000E0C14066E000E0D14076EDA
:101D4600000E0E14086EFE0E0F14096E06500710D4
:101D560008100910D8A4B2EF0EF0B4EF0EF097EF0A
:101D66000EF0C2EF0EF00B2A010E0C26000E0D220D
:101D76000E220F22D8900F320E320D320C32000E88
:101D86000C14066E000E0D14076E000E0E14086E6F
:101D9600FF0E0F14096E0650071008100910D8A47C
:101DA600D7EF0EF0D9EF0EF0B6EF0EF0E1EF0EF032
:101DB6000B06D8900C360D360E360F360EBEE6EFF5
:101DC6000EF0E8EF0EF0F0EF0EF0020E0B60EEEF05
:101DD6000EF0F0EF0EF0DBEF0EF00BB0F5EF0EF0BD
:101DE600F7EF0EF0F8EF0EF00E9ED8900B320BC008
:101DF60006F0076A086A096A06C009F0086A076AEF
:101E0600066A06500C1207500D1208500E120950A1
:101E16000F120A50D8B412EF0FF014EF0FF01CEFA8
:101E26000FF005BE1BEF0FF019EF0FF01CEF0FF0D0
:101E36000F8E0CC002F00DC003F00EC004F00FC0F0
:101E460005F0120047504810D8A42CEF0FF02EEFE3
:101E56000FF034EF0FF0000E4A6E000E496ECFEF12
:101E66000FF0C69A20EE04F04750D9264850DA22E1
:101E7600DFA040EF0FF042EF0FF04AEF0FF047C040
:101E860043F048C044F057EC10F086EF0FF020EE18
:101E960004F04750D9264850DA22DFB055EF0FF04C
:101EA60057EF0FF086EF0FF020EE04F04750D926DB
:101EB6004850DA22DFA662EF0FF064EF0FF067EF0B
:101EC6000FF0C58E75EF0FF020EE04F04750D926BF
:101ED6004850DA22DFB672EF0FF074EF0FF075EFAD
:101EE6000FF0C59EC69EC69CC68820EE03F04750DE
:101EF600D9264850DA22DF50C86E47C002F048C0E3
:101F060003F0C8EC11F031EC12F020EE04F047506B
:101F1600D9264850DA22DFA293EF0FF095EF0FF0A3
:101F260098EF0FF0C78EA6EF0FF020EE04F04750A3
:101F3600D9264850DA22DFB2A3EF0FF0A5EF0FF053
:101F4600A6EF0FF0C79E20EE04F04750D926485062
:101F5600DA22DFA4B1EF0FF0B3EF0FF0B6EF0FF018
:101F6600C78CC4EF0FF020EE04F04750D926485036
:101F7600DA22DFB4C1EF0FF0C3EF0FF0C4EF0FF0BA
:101F8600C79C47C002F048C003F0ADEC11F0C68A0A
:101F9600000E4A6E010E496E49C047F04AC048F02D
:101FA60012003B343C34426E4250D8A4DDEF0FF0B1
:101FB600DFEF0FF0E9EF0FF0000E396E000E3A6E0C
:101FC600000E3B6E000E3C6E56EF10F039C03DF031
:101FD6003AC03EF03BC03FF03CC040F0200EF9EF67
:101FE6000FF0D89040323F323E323D32E82EF4EFC9
:101FF6000FF03D50416E3B8EFF0E3916FF0E3A161E
:10200600FF0E3B16000E3C16960E425E42BE10EFC9
:1020160010F00EEF10F026EF10F04250800A970FE6
:10202600D8B018EF10F01AEF10F01CEF10F0DFEF39
:102036000FF0D8903C323B323A323932423E1CEFF6
:1020460010F03EEF10F01F0E42642CEF10F02EEF52
:1020560010F036EF10F0DFEF0FF0D89039363A3641
:102066003B363C3642064250D8A43CEF10F03EEFD9
:1020760010F030EF10F04150D8B444EF10F046EFB6
:1020860010F04EEF10F03C1E3B1E3A1E396C000E4F
:102096003A223B223C2239C039F03AC03AF03BC0E2
:1020A6003BF03CC03CF0120020EE02F04350D92633
:1020B6004450DA22DF50456EC6504518F00B4518DD
:1020C600C66E000E2D6E000E2E6E800E2F6EBF0E8B
:1020D600306E43C0D9FF44C0DAFFDECF45F0DDCF16
:1020E60046F045C002F046C003F0046A056A000ED9
:1020F6004BEC0EF002C014F003C015F004C016F04D
:1021060005C017F0000E106E240E116EF40E126E3E
:10211600490E136E7EEC0CF010C029F011C02AF0A7
:1021260012C02BF013C02CF00BEC08F029C039F0CC
:102136002AC03AF02BC03BF02CC03CF0D4EC0FF098
:102146003950C86E120002500310D8B4ADEF10F02B
:10215600AFEF10F0B8EF10F005500610D8A4B6EFA8
:1021660010F0B8EF10F0BEEF10F0000E086E000E83
:10217600076EE0EF10F004C0C9FFC7B0C5EF10F05E
:10218600C7EF10F0C0EF10F09E96C5BCCDEF10F073
:10219600CFEF10F0D6EF10F005C0D9FF06C0DAFF7A
:1021A600DF6ADCEF10F005C0D9FF06C0DAFF010ECA
:1021B600DF6E000E086E010E076E07C002F008C043
:1021C60003F01200200EF66E230EF76E000EF86E68
:1021D60000EE80F010EE39F00900F5CFEEFFE55085
:1021E600E150FAE13A0EF66E240EF76E000EF86E26
:1021F60000EE73F010EE0BF00900F5CFEEFFE550A0
:10220600E150FAE100EEB9F0330EEE6AE806FDE1C0
:1022160000EE4BF0280EEE6AE806FDE17E907E9217
:10222600000116EF11F0D6EC11F0AC0E026E000EA6
:10223600036E68EC11F002C0ECF003C0EDF0AC0EDA
:10224600026E000E036E610E046E720E056E000EB7
:10225600066EA6EC10F002C0ECF003C0EDF0AC0E7A
:10226600026E000E036E40EC11F002C0ECF003C0EB
:10227600EDF03CEF11F007EF00F002500310D8A488
:1022860047EF11F049EF11F04FEF11F0000E056E18
:10229600000E046E63EF11F0C584C5B455EF11F05E
:1022A60057EF11F050EF11F09E96C7A85DEF11F0B1
:1022B6005FEF11F049EF11F0000E056E010E046E8E
:1022C60004C002F005C003F0120002500310D8A4A7
:1022D6006FEF11F071EF11F077EF11F0000E056E50
:1022E600000E046E8BEF11F0C580C5B07DEF11F0C6
:1022F6007FEF11F078EF11F09E96C7A685EF11F0EB
:1023060087EF11F071EF11F0000E056E010E046EED
:1023160004C002F005C003F01200800F810F820F87
:10232600830F840F890F8A0F8B0F8C0F8D0F920FDF
:10233600930F940F950F960F020A121A626A727A19
:10234600020A121A222AA0860800030000000000D2
:0323560000000084
:10235A009D86A0869E96A19620EE09F00250D92667
:10236A000350DA22DECF5FF0DDCF60F020EE07F017
:10237A000250D9260350DA22DECF61F0DDCF62F0B7
:10238A00F28EF28C120020EE02F00250D92603508F
:10239A00DA22DF50046EC6500418F00B0418C66E19
:1023AA00120048EC12F0AC0E476E000E486E25EC97
:1023BA000FF047C0ECF048C0EDF01200016EF29049
:1023CA000150D8A4EBEF11F0EDEF11F0EFEF11F09F
:1023DA00EFEF11F01200016EF2900150D8A4F8EF5D
:1023EA0011F0FAEF11F0FCEF11F0FCEF11F012000E
:1023FA00016EF2900150D8A405EF12F007EF12F027
:10240A0009EF12F009EF12F01200016EF29001507A
:10241A00D8A412EF12F014EF12F016EF12F016EF22
:10242A0012F01200A1924C50B36E4BC0B2FF1200D0
:0B243A00685A622A1A622A010101019F
:102446005050CF6E4FC0CEFF12005250D76E51C0C3
:10245600D6FF12009E924DC0CCFF1200948694883F
:1024660012009D9812009E9612009E961200A1964A
:102476001200F0921200F0901200F29212009E9456
:102486001200A19012009E94120012001200120077
:020000040020DA
:08000000FFFFFFFFFFFFFFFF00
:020000040030CA
:0E000000FF02091EFF8381FF0FC00FE00F40BB
:00000001FF
